{
  "contractName": "BlindAuction",
  "abi": [
    {
      "inputs": [
        {
          "internalType": "uint256",
          "name": "biddingTime",
          "type": "uint256"
        },
        {
          "internalType": "uint256",
          "name": "revealTime",
          "type": "uint256"
        },
        {
          "internalType": "address payable",
          "name": "beneficiaryAddress",
          "type": "address"
        }
      ],
      "stateMutability": "nonpayable",
      "type": "constructor"
    },
    {
      "inputs": [],
      "name": "AuctionEndAlreadyCalled",
      "type": "error"
    },
    {
      "inputs": [
        {
          "internalType": "uint256",
          "name": "time",
          "type": "uint256"
        }
      ],
      "name": "TooEarly",
      "type": "error"
    },
    {
      "inputs": [
        {
          "internalType": "uint256",
          "name": "time",
          "type": "uint256"
        }
      ],
      "name": "TooLate",
      "type": "error"
    },
    {
      "anonymous": false,
      "inputs": [
        {
          "indexed": false,
          "internalType": "address",
          "name": "winner",
          "type": "address"
        },
        {
          "indexed": false,
          "internalType": "uint256",
          "name": "highestBid",
          "type": "uint256"
        }
      ],
      "name": "AuctionEnded",
      "type": "event"
    },
    {
      "inputs": [],
      "name": "beneficiary",
      "outputs": [
        {
          "internalType": "address payable",
          "name": "",
          "type": "address"
        }
      ],
      "stateMutability": "view",
      "type": "function",
      "constant": true
    },
    {
      "inputs": [],
      "name": "biddingEnd",
      "outputs": [
        {
          "internalType": "uint256",
          "name": "",
          "type": "uint256"
        }
      ],
      "stateMutability": "view",
      "type": "function",
      "constant": true
    },
    {
      "inputs": [
        {
          "internalType": "address",
          "name": "",
          "type": "address"
        },
        {
          "internalType": "uint256",
          "name": "",
          "type": "uint256"
        }
      ],
      "name": "bids",
      "outputs": [
        {
          "internalType": "bytes32",
          "name": "blindedBid",
          "type": "bytes32"
        },
        {
          "internalType": "uint256",
          "name": "deposit",
          "type": "uint256"
        }
      ],
      "stateMutability": "view",
      "type": "function",
      "constant": true
    },
    {
      "inputs": [],
      "name": "ended",
      "outputs": [
        {
          "internalType": "bool",
          "name": "",
          "type": "bool"
        }
      ],
      "stateMutability": "view",
      "type": "function",
      "constant": true
    },
    {
      "inputs": [],
      "name": "highestBid",
      "outputs": [
        {
          "internalType": "uint256",
          "name": "",
          "type": "uint256"
        }
      ],
      "stateMutability": "view",
      "type": "function",
      "constant": true
    },
    {
      "inputs": [],
      "name": "highestBidder",
      "outputs": [
        {
          "internalType": "address",
          "name": "",
          "type": "address"
        }
      ],
      "stateMutability": "view",
      "type": "function",
      "constant": true
    },
    {
      "inputs": [],
      "name": "revealEnd",
      "outputs": [
        {
          "internalType": "uint256",
          "name": "",
          "type": "uint256"
        }
      ],
      "stateMutability": "view",
      "type": "function",
      "constant": true
    },
    {
      "inputs": [
        {
          "internalType": "bytes32",
          "name": "blindedBid",
          "type": "bytes32"
        }
      ],
      "name": "bid",
      "outputs": [],
      "stateMutability": "payable",
      "type": "function",
      "payable": true
    },
    {
      "inputs": [
        {
          "internalType": "uint256[]",
          "name": "values",
          "type": "uint256[]"
        },
        {
          "internalType": "bool[]",
          "name": "fakes",
          "type": "bool[]"
        },
        {
          "internalType": "bytes32[]",
          "name": "secrets",
          "type": "bytes32[]"
        }
      ],
      "name": "reveal",
      "outputs": [],
      "stateMutability": "nonpayable",
      "type": "function"
    },
    {
      "inputs": [],
      "name": "withdraw",
      "outputs": [],
      "stateMutability": "nonpayable",
      "type": "function"
    },
    {
      "inputs": [],
      "name": "auctionEnd",
      "outputs": [],
      "stateMutability": "nonpayable",
      "type": "function"
    }
  ],
  "bytecode": "0x60806040523480156200001157600080fd5b506040516200138a3803806200138a83398181016040528101906200003791906200014f565b806000806101000a81548173ffffffffffffffffffffffffffffffffffffffff021916908373ffffffffffffffffffffffffffffffffffffffff1602179055508242620000859190620001da565b600181905550816001546200009b9190620001da565b60028190555050505062000215565b600080fd5b6000819050919050565b620000c481620000af565b8114620000d057600080fd5b50565b600081519050620000e481620000b9565b92915050565b600073ffffffffffffffffffffffffffffffffffffffff82169050919050565b60006200011782620000ea565b9050919050565b62000129816200010a565b81146200013557600080fd5b50565b60008151905062000149816200011e565b92915050565b6000806000606084860312156200016b576200016a620000aa565b5b60006200017b86828701620000d3565b93505060206200018e86828701620000d3565b9250506040620001a18682870162000138565b9150509250925092565b7f4e487b7100000000000000000000000000000000000000000000000000000000600052601160045260246000fd5b6000620001e782620000af565b9150620001f483620000af565b92508282019050808211156200020f576200020e620001ab565b5b92915050565b61116580620002256000396000f3fe60806040526004361061009c5760003560e01c8063423b217f11610064578063423b217f14610163578063900f080a1461018e57806391f90157146101b7578063957bb1e0146101e2578063a6e66477146101fe578063d57bde79146102295761009c565b806301495c1c146100a157806312fa6feb146100df5780632a24f46c1461010a57806338af3eed146101215780633ccfd60b1461014c575b600080fd5b3480156100ad57600080fd5b506100c860048036038101906100c39190610af5565b610254565b6040516100d6929190610b5d565b60405180910390f35b3480156100eb57600080fd5b506100f4610295565b6040516101019190610ba1565b60405180910390f35b34801561011657600080fd5b5061011f6102a8565b005b34801561012d57600080fd5b50610136610419565b6040516101439190610bdd565b60405180910390f35b34801561015857600080fd5b5061016161043d565b005b34801561016f57600080fd5b5061017861051a565b6040516101859190610bf8565b60405180910390f35b34801561019a57600080fd5b506101b560048036038101906101b09190610d24565b610520565b005b3480156101c357600080fd5b506101cc610804565b6040516101d99190610de7565b60405180910390f35b6101fc60048036038101906101f79190610e2e565b61082a565b005b34801561020a57600080fd5b50610213610913565b6040516102209190610bf8565b60405180910390f35b34801561023557600080fd5b5061023e610919565b60405161024b9190610bf8565b60405180910390f35b6004602052816000526040600020818154811061027057600080fd5b9060005260206000209060020201600091509150508060000154908060010154905082565b600360009054906101000a900460ff1681565b600254804210156102ee576040517f08c379a00000000000000000000000000000000000000000000000000000000081526004016102e590610eb8565b60405180910390fd5b600360009054906101000a900460ff1615610335576040517f61cfdcf800000000000000000000000000000000000000000000000000000000815260040160405180910390fd5b7fdaec4582d5d9595688c8c98545fdd1c696d41c6aeaeb636737e84ed2f5c00eda600560009054906101000a900473ffffffffffffffffffffffffffffffffffffffff1660065460405161038a929190610ed8565b60405180910390a16001600360006101000a81548160ff02191690831515021790555060008054906101000a900473ffffffffffffffffffffffffffffffffffffffff1673ffffffffffffffffffffffffffffffffffffffff166108fc6006549081150290604051600060405180830381858888f19350505050158015610415573d6000803e3d6000fd5b5050565b60008054906101000a900473ffffffffffffffffffffffffffffffffffffffff1681565b6000600760003373ffffffffffffffffffffffffffffffffffffffff1673ffffffffffffffffffffffffffffffffffffffff1681526020019081526020016000205490506000811115610517576000600760003373ffffffffffffffffffffffffffffffffffffffff1673ffffffffffffffffffffffffffffffffffffffff168152602001908152602001600020819055503373ffffffffffffffffffffffffffffffffffffffff166108fc829081150290604051600060405180830381858888f19350505050158015610515573d6000803e3d6000fd5b505b50565b60015481565b60015480421015610566576040517f08c379a000000000000000000000000000000000000000000000000000000000815260040161055d90610eb8565b60405180910390fd5b6002548042106105b857428161057c9190610f30565b6040517f691e56820000000000000000000000000000000000000000000000000000000081526004016105af9190610bf8565b60405180910390fd5b6000600460003373ffffffffffffffffffffffffffffffffffffffff1673ffffffffffffffffffffffffffffffffffffffff16815260200190815260200160002080549050905080898990501461060e57600080fd5b80878790501461061d57600080fd5b80858590501461062c57600080fd5b600080600090505b828110156107b0576000600460003373ffffffffffffffffffffffffffffffffffffffff1673ffffffffffffffffffffffffffffffffffffffff168152602001908152602001600020828154811061068f5761068e610f64565b5b9060005260206000209060020201905060008060008e8e868181106106b7576106b6610f64565b5b905060200201358d8d878181106106d1576106d0610f64565b5b90506020020160208101906106e69190610fbf565b8c8c888181106106f9576106f8610f64565b5b9050602002013592509250925082828260405160200161071b93929190611076565b60405160208183030381529060405280519060200120846000015414610744575050505061079d565b83600101548661075491906110b3565b955081158015610768575082846001015410155b1561078c57610777338461091f565b1561078b5782866107889190610f30565b95505b5b6000801b8460000181905550505050505b80806107a8906110e7565b915050610634565b503373ffffffffffffffffffffffffffffffffffffffff166108fc829081150290604051600060405180830381858888f193505050501580156107f7573d6000803e3d6000fd5b5050505050505050505050565b600560009054906101000a900473ffffffffffffffffffffffffffffffffffffffff1681565b60015480421061087c5742816108409190610f30565b6040517f691e56820000000000000000000000000000000000000000000000000000000081526004016108739190610bf8565b60405180910390fd5b600460003373ffffffffffffffffffffffffffffffffffffffff1673ffffffffffffffffffffffffffffffffffffffff1681526020019081526020016000206040518060400160405280848152602001348152509080600181540180825580915050600190039060005260206000209060020201600090919091909150600082015181600001556020820151816001015550505050565b60025481565b60065481565b600060065482116109335760009050610a51565b600073ffffffffffffffffffffffffffffffffffffffff16600560009054906101000a900473ffffffffffffffffffffffffffffffffffffffff1673ffffffffffffffffffffffffffffffffffffffff1614610a045760065460076000600560009054906101000a900473ffffffffffffffffffffffffffffffffffffffff1673ffffffffffffffffffffffffffffffffffffffff1673ffffffffffffffffffffffffffffffffffffffff16815260200190815260200160002060008282546109fc91906110b3565b925050819055505b8160068190555082600560006101000a81548173ffffffffffffffffffffffffffffffffffffffff021916908373ffffffffffffffffffffffffffffffffffffffff160217905550600190505b92915050565b600080fd5b600080fd5b600073ffffffffffffffffffffffffffffffffffffffff82169050919050565b6000610a8c82610a61565b9050919050565b610a9c81610a81565b8114610aa757600080fd5b50565b600081359050610ab981610a93565b92915050565b6000819050919050565b610ad281610abf565b8114610add57600080fd5b50565b600081359050610aef81610ac9565b92915050565b60008060408385031215610b0c57610b0b610a57565b5b6000610b1a85828601610aaa565b9250506020610b2b85828601610ae0565b9150509250929050565b6000819050919050565b610b4881610b35565b82525050565b610b5781610abf565b82525050565b6000604082019050610b726000830185610b3f565b610b7f6020830184610b4e565b9392505050565b60008115159050919050565b610b9b81610b86565b82525050565b6000602082019050610bb66000830184610b92565b92915050565b6000610bc782610a61565b9050919050565b610bd781610bbc565b82525050565b6000602082019050610bf26000830184610bce565b92915050565b6000602082019050610c0d6000830184610b4e565b92915050565b600080fd5b600080fd5b600080fd5b60008083601f840112610c3857610c37610c13565b5b8235905067ffffffffffffffff811115610c5557610c54610c18565b5b602083019150836020820283011115610c7157610c70610c1d565b5b9250929050565b60008083601f840112610c8e57610c8d610c13565b5b8235905067ffffffffffffffff811115610cab57610caa610c18565b5b602083019150836020820283011115610cc757610cc6610c1d565b5b9250929050565b60008083601f840112610ce457610ce3610c13565b5b8235905067ffffffffffffffff811115610d0157610d00610c18565b5b602083019150836020820283011115610d1d57610d1c610c1d565b5b9250929050565b60008060008060008060608789031215610d4157610d40610a57565b5b600087013567ffffffffffffffff811115610d5f57610d5e610a5c565b5b610d6b89828a01610c22565b9650965050602087013567ffffffffffffffff811115610d8e57610d8d610a5c565b5b610d9a89828a01610c78565b9450945050604087013567ffffffffffffffff811115610dbd57610dbc610a5c565b5b610dc989828a01610cce565b92509250509295509295509295565b610de181610a81565b82525050565b6000602082019050610dfc6000830184610dd8565b92915050565b610e0b81610b35565b8114610e1657600080fd5b50565b600081359050610e2881610e02565b92915050565b600060208284031215610e4457610e43610a57565b5b6000610e5284828501610e19565b91505092915050565b600082825260208201905092915050565b7f74696d657374616d70206973206c6f776572207468616e2074696d6521212100600082015250565b6000610ea2601f83610e5b565b9150610ead82610e6c565b602082019050919050565b60006020820190508181036000830152610ed181610e95565b9050919050565b6000604082019050610eed6000830185610dd8565b610efa6020830184610b4e565b9392505050565b7f4e487b7100000000000000000000000000000000000000000000000000000000600052601160045260246000fd5b6000610f3b82610abf565b9150610f4683610abf565b9250828203905081811115610f5e57610f5d610f01565b5b92915050565b7f4e487b7100000000000000000000000000000000000000000000000000000000600052603260045260246000fd5b610f9c81610b86565b8114610fa757600080fd5b50565b600081359050610fb981610f93565b92915050565b600060208284031215610fd557610fd4610a57565b5b6000610fe384828501610faa565b91505092915050565b6000819050919050565b61100761100282610abf565b610fec565b82525050565b60008160f81b9050919050565b60006110258261100d565b9050919050565b60006110378261101a565b9050919050565b61104f61104a82610b86565b61102c565b82525050565b6000819050919050565b61107061106b82610b35565b611055565b82525050565b60006110828286610ff6565b602082019150611092828561103e565b6001820191506110a2828461105f565b602082019150819050949350505050565b60006110be82610abf565b91506110c983610abf565b92508282019050808211156110e1576110e0610f01565b5b92915050565b60006110f282610abf565b91507fffffffffffffffffffffffffffffffffffffffffffffffffffffffffffffffff820361112457611123610f01565b5b60018201905091905056fea264697066735822122032cc37c70abaad57f6f0c18ba127e4c0694b4fec99008a7f80983cdc8b52a02c64736f6c63430008130033",
  "immutableReferences": {},
  "source": "// SPDX-License-Identifier: GPL-3.0\r\npragma solidity >=0.7.0 <0.9.0;\r\ncontract BlindAuction {\r\n    struct Bid {\r\n        bytes32 blindedBid;\r\n        uint deposit;\r\n    }\r\n\r\n    address payable public beneficiary;\r\n    uint public biddingEnd;\r\n    uint public revealEnd;\r\n    bool public ended;\r\n\r\n    mapping(address => Bid[]) public bids;\r\n\r\n    address public highestBidder;\r\n    uint public highestBid;\r\n\r\n    mapping(address => uint) pendingReturns;\r\n\r\n    event AuctionEnded(address winner, uint highestBid);\r\n\r\n    error TooEarly(uint time);\r\n    error TooLate(uint time);\r\n    error AuctionEndAlreadyCalled();\r\n\r\n    modifier onlyBefore(uint time) {\r\n        if (block.timestamp >= time) revert TooLate(time - block.timestamp);\r\n        _;\r\n    }\r\n    modifier onlyAfter(uint time) {\r\n        require(block.timestamp >= time, \"timestamp is lower than time!!!\");\r\n        //if (block.timestamp <= time) revert TooEarly(time - block.timestamp);\r\n        _;\r\n    }\r\n\r\n    constructor(\r\n        uint biddingTime,\r\n        uint revealTime,\r\n        address payable beneficiaryAddress\r\n    ) {\r\n        beneficiary = beneficiaryAddress;\r\n        biddingEnd = block.timestamp + biddingTime;\r\n        revealEnd = biddingEnd + revealTime;\r\n    }\r\n\r\n    // function blind_a_bid(uint value, bool fake, bytes32 secret) \r\n    //     public \r\n    //     pure \r\n    //     returns (bytes32){\r\n    //     return keccak256(abi.encodePacked(value, fake, secret));\r\n    // }\r\n\r\n    function bid(bytes32 blindedBid)\r\n        external\r\n        payable\r\n        onlyBefore(biddingEnd)\r\n    {\r\n        bids[msg.sender].push(Bid({\r\n            blindedBid: blindedBid,\r\n            deposit: msg.value\r\n        }));\r\n    }\r\n\r\n    function reveal(\r\n        uint[] calldata values,\r\n        bool[] calldata fakes,\r\n        bytes32[] calldata secrets\r\n    )\r\n        external\r\n        onlyAfter(biddingEnd)\r\n        onlyBefore(revealEnd)\r\n    {\r\n        uint length = bids[msg.sender].length;\r\n        require(values.length == length);\r\n        require(fakes.length == length);\r\n        require(secrets.length == length);\r\n\r\n        uint refund;\r\n        for (uint i = 0; i < length; i++) {\r\n            Bid storage bidToCheck = bids[msg.sender][i];\r\n            (uint value, bool fake, bytes32 secret) =\r\n                    (values[i], fakes[i], secrets[i]);\r\n            if (bidToCheck.blindedBid != keccak256(abi.encodePacked(value, fake, secret))) {\r\n                continue;\r\n            }\r\n            refund += bidToCheck.deposit;\r\n            if (!fake && bidToCheck.deposit >= value) {\r\n                if (placeBid(msg.sender, value))\r\n                    refund -= value;\r\n            }\r\n            bidToCheck.blindedBid = bytes32(0);\r\n        }\r\n        payable(msg.sender).transfer(refund);\r\n    }\r\n\r\n    function withdraw() external {\r\n        uint amount = pendingReturns[msg.sender];\r\n        if (amount > 0) {\r\n            pendingReturns[msg.sender] = 0;\r\n            payable(msg.sender).transfer(amount);\r\n        }\r\n    }\r\n\r\n    function auctionEnd()\r\n        external\r\n        onlyAfter(revealEnd)\r\n    {\r\n        if (ended) revert AuctionEndAlreadyCalled();\r\n        emit AuctionEnded(highestBidder, highestBid);\r\n        ended = true;\r\n        beneficiary.transfer(highestBid);\r\n    }\r\n\r\n    function placeBid(address bidder, uint value) internal\r\n            returns (bool success)\r\n    {\r\n        if (value <= highestBid) {\r\n            return false;\r\n        }\r\n        if (highestBidder != address(0)) {\r\n            pendingReturns[highestBidder] += highestBid;\r\n        }\r\n        highestBid = value;\r\n        highestBidder = bidder;\r\n        return true;\r\n    }\r\n}",
  "sourcePath": "E:\\study-sprint\\MetaCoin\\contracts\\BlindAuction.sol",
  "compiler": {
    "name": "solc",
    "version": "0.8.19+commit.7dd6d404.Emscripten.clang"
  },
  "schemaVersion": "3.4.16",
  "updatedAt": "2024-01-31T02:16:16.914Z",
  "networkType": "ethereum",
  "devdoc": {
    "kind": "dev",
    "methods": {},
    "version": 1
  },
  "userdoc": {
    "kind": "user",
    "methods": {},
    "version": 1
  }
}