{
  "contractName": "BlindAuction",
  "abi": [
    {
      "inputs": [
        {
          "internalType": "uint256",
          "name": "biddingTime",
          "type": "uint256"
        },
        {
          "internalType": "uint256",
          "name": "revealTime",
          "type": "uint256"
        },
        {
          "internalType": "address payable",
          "name": "beneficiaryAddress",
          "type": "address"
        }
      ],
      "stateMutability": "nonpayable",
      "type": "constructor"
    },
    {
      "inputs": [],
      "name": "AuctionEndAlreadyCalled",
      "type": "error"
    },
    {
      "inputs": [
        {
          "internalType": "uint256",
          "name": "time",
          "type": "uint256"
        }
      ],
      "name": "TooEarly",
      "type": "error"
    },
    {
      "inputs": [
        {
          "internalType": "uint256",
          "name": "time",
          "type": "uint256"
        }
      ],
      "name": "TooLate",
      "type": "error"
    },
    {
      "anonymous": false,
      "inputs": [
        {
          "indexed": false,
          "internalType": "address",
          "name": "winner",
          "type": "address"
        },
        {
          "indexed": false,
          "internalType": "uint256",
          "name": "highestBid",
          "type": "uint256"
        }
      ],
      "name": "AuctionEnded",
      "type": "event"
    },
    {
      "inputs": [],
      "name": "beneficiary",
      "outputs": [
        {
          "internalType": "address payable",
          "name": "",
          "type": "address"
        }
      ],
      "stateMutability": "view",
      "type": "function",
      "constant": true
    },
    {
      "inputs": [],
      "name": "biddingEnd",
      "outputs": [
        {
          "internalType": "uint256",
          "name": "",
          "type": "uint256"
        }
      ],
      "stateMutability": "view",
      "type": "function",
      "constant": true
    },
    {
      "inputs": [
        {
          "internalType": "address",
          "name": "",
          "type": "address"
        },
        {
          "internalType": "uint256",
          "name": "",
          "type": "uint256"
        }
      ],
      "name": "bids",
      "outputs": [
        {
          "internalType": "bytes32",
          "name": "blindedBid",
          "type": "bytes32"
        },
        {
          "internalType": "uint256",
          "name": "deposit",
          "type": "uint256"
        }
      ],
      "stateMutability": "view",
      "type": "function",
      "constant": true
    },
    {
      "inputs": [],
      "name": "ended",
      "outputs": [
        {
          "internalType": "bool",
          "name": "",
          "type": "bool"
        }
      ],
      "stateMutability": "view",
      "type": "function",
      "constant": true
    },
    {
      "inputs": [],
      "name": "highestBid",
      "outputs": [
        {
          "internalType": "uint256",
          "name": "",
          "type": "uint256"
        }
      ],
      "stateMutability": "view",
      "type": "function",
      "constant": true
    },
    {
      "inputs": [],
      "name": "highestBidder",
      "outputs": [
        {
          "internalType": "address",
          "name": "",
          "type": "address"
        }
      ],
      "stateMutability": "view",
      "type": "function",
      "constant": true
    },
    {
      "inputs": [],
      "name": "revealEnd",
      "outputs": [
        {
          "internalType": "uint256",
          "name": "",
          "type": "uint256"
        }
      ],
      "stateMutability": "view",
      "type": "function",
      "constant": true
    },
    {
      "inputs": [
        {
          "internalType": "bytes32",
          "name": "blindedBid",
          "type": "bytes32"
        }
      ],
      "name": "bid",
      "outputs": [],
      "stateMutability": "payable",
      "type": "function",
      "payable": true
    },
    {
      "inputs": [
        {
          "internalType": "uint256[]",
          "name": "values",
          "type": "uint256[]"
        },
        {
          "internalType": "bool[]",
          "name": "fakes",
          "type": "bool[]"
        },
        {
          "internalType": "bytes32[]",
          "name": "secrets",
          "type": "bytes32[]"
        }
      ],
      "name": "reveal",
      "outputs": [],
      "stateMutability": "nonpayable",
      "type": "function"
    },
    {
      "inputs": [],
      "name": "withdraw",
      "outputs": [],
      "stateMutability": "nonpayable",
      "type": "function"
    },
    {
      "inputs": [],
      "name": "auctionEnd",
      "outputs": [],
      "stateMutability": "nonpayable",
      "type": "function"
    }
  ],
  "bytecode": "0x60806040523480156200001157600080fd5b50604051620013253803806200132583398181016040528101906200003791906200014f565b806000806101000a81548173ffffffffffffffffffffffffffffffffffffffff021916908373ffffffffffffffffffffffffffffffffffffffff1602179055508242620000859190620001da565b600181905550816001546200009b9190620001da565b60028190555050505062000215565b600080fd5b6000819050919050565b620000c481620000af565b8114620000d057600080fd5b50565b600081519050620000e481620000b9565b92915050565b600073ffffffffffffffffffffffffffffffffffffffff82169050919050565b60006200011782620000ea565b9050919050565b62000129816200010a565b81146200013557600080fd5b50565b60008151905062000149816200011e565b92915050565b6000806000606084860312156200016b576200016a620000aa565b5b60006200017b86828701620000d3565b93505060206200018e86828701620000d3565b9250506040620001a18682870162000138565b9150509250925092565b7f4e487b7100000000000000000000000000000000000000000000000000000000600052601160045260246000fd5b6000620001e782620000af565b9150620001f483620000af565b92508282019050808211156200020f576200020e620001ab565b5b92915050565b61110080620002256000396000f3fe60806040526004361061009c5760003560e01c8063423b217f11610064578063423b217f14610163578063900f080a1461018e57806391f90157146101b7578063957bb1e0146101e2578063a6e66477146101fe578063d57bde79146102295761009c565b806301495c1c146100a157806312fa6feb146100df5780632a24f46c1461010a57806338af3eed146101215780633ccfd60b1461014c575b600080fd5b3480156100ad57600080fd5b506100c860048036038101906100c39190610b0d565b610254565b6040516100d6929190610b75565b60405180910390f35b3480156100eb57600080fd5b506100f4610295565b6040516101019190610bb9565b60405180910390f35b34801561011657600080fd5b5061011f6102a8565b005b34801561012d57600080fd5b50610136610425565b6040516101439190610bf5565b60405180910390f35b34801561015857600080fd5b50610161610449565b005b34801561016f57600080fd5b50610178610526565b6040516101859190610c10565b60405180910390f35b34801561019a57600080fd5b506101b560048036038101906101b09190610d3c565b61052c565b005b3480156101c357600080fd5b506101cc61081c565b6040516101d99190610dff565b60405180910390f35b6101fc60048036038101906101f79190610e46565b610842565b005b34801561020a57600080fd5b5061021361092b565b6040516102209190610c10565b60405180910390f35b34801561023557600080fd5b5061023e610931565b60405161024b9190610c10565b60405180910390f35b6004602052816000526040600020818154811061027057600080fd5b9060005260206000209060020201600091509150508060000154908060010154905082565b600360009054906101000a900460ff1681565b6002548042116102fa5742816102be9190610ea2565b6040517f2a35a3240000000000000000000000000000000000000000000000000000000081526004016102f19190610c10565b60405180910390fd5b600360009054906101000a900460ff1615610341576040517f61cfdcf800000000000000000000000000000000000000000000000000000000815260040160405180910390fd5b7fdaec4582d5d9595688c8c98545fdd1c696d41c6aeaeb636737e84ed2f5c00eda600560009054906101000a900473ffffffffffffffffffffffffffffffffffffffff16600654604051610396929190610ed6565b60405180910390a16001600360006101000a81548160ff02191690831515021790555060008054906101000a900473ffffffffffffffffffffffffffffffffffffffff1673ffffffffffffffffffffffffffffffffffffffff166108fc6006549081150290604051600060405180830381858888f19350505050158015610421573d6000803e3d6000fd5b5050565b60008054906101000a900473ffffffffffffffffffffffffffffffffffffffff1681565b6000600760003373ffffffffffffffffffffffffffffffffffffffff1673ffffffffffffffffffffffffffffffffffffffff1681526020019081526020016000205490506000811115610523576000600760003373ffffffffffffffffffffffffffffffffffffffff1673ffffffffffffffffffffffffffffffffffffffff168152602001908152602001600020819055503373ffffffffffffffffffffffffffffffffffffffff166108fc829081150290604051600060405180830381858888f19350505050158015610521573d6000803e3d6000fd5b505b50565b60015481565b60015480421161057e5742816105429190610ea2565b6040517f2a35a3240000000000000000000000000000000000000000000000000000000081526004016105759190610c10565b60405180910390fd5b6002548042106105d05742816105949190610ea2565b6040517f691e56820000000000000000000000000000000000000000000000000000000081526004016105c79190610c10565b60405180910390fd5b6000600460003373ffffffffffffffffffffffffffffffffffffffff1673ffffffffffffffffffffffffffffffffffffffff16815260200190815260200160002080549050905080898990501461062657600080fd5b80878790501461063557600080fd5b80858590501461064457600080fd5b600080600090505b828110156107c8576000600460003373ffffffffffffffffffffffffffffffffffffffff1673ffffffffffffffffffffffffffffffffffffffff16815260200190815260200160002082815481106106a7576106a6610eff565b5b9060005260206000209060020201905060008060008e8e868181106106cf576106ce610eff565b5b905060200201358d8d878181106106e9576106e8610eff565b5b90506020020160208101906106fe9190610f5a565b8c8c8881811061071157610710610eff565b5b9050602002013592509250925082828260405160200161073393929190611011565b6040516020818303038152906040528051906020012084600001541461075c57505050506107b5565b83600101548661076c919061104e565b955081158015610780575082846001015410155b156107a45761078f3384610937565b156107a35782866107a09190610ea2565b95505b5b6000801b8460000181905550505050505b80806107c090611082565b91505061064c565b503373ffffffffffffffffffffffffffffffffffffffff166108fc829081150290604051600060405180830381858888f1935050505015801561080f573d6000803e3d6000fd5b5050505050505050505050565b600560009054906101000a900473ffffffffffffffffffffffffffffffffffffffff1681565b6001548042106108945742816108589190610ea2565b6040517f691e568200000000000000000000000000000000000000000000000000000000815260040161088b9190610c10565b60405180910390fd5b600460003373ffffffffffffffffffffffffffffffffffffffff1673ffffffffffffffffffffffffffffffffffffffff1681526020019081526020016000206040518060400160405280848152602001348152509080600181540180825580915050600190039060005260206000209060020201600090919091909150600082015181600001556020820151816001015550505050565b60025481565b60065481565b6000600654821161094b5760009050610a69565b600073ffffffffffffffffffffffffffffffffffffffff16600560009054906101000a900473ffffffffffffffffffffffffffffffffffffffff1673ffffffffffffffffffffffffffffffffffffffff1614610a1c5760065460076000600560009054906101000a900473ffffffffffffffffffffffffffffffffffffffff1673ffffffffffffffffffffffffffffffffffffffff1673ffffffffffffffffffffffffffffffffffffffff1681526020019081526020016000206000828254610a14919061104e565b925050819055505b8160068190555082600560006101000a81548173ffffffffffffffffffffffffffffffffffffffff021916908373ffffffffffffffffffffffffffffffffffffffff160217905550600190505b92915050565b600080fd5b600080fd5b600073ffffffffffffffffffffffffffffffffffffffff82169050919050565b6000610aa482610a79565b9050919050565b610ab481610a99565b8114610abf57600080fd5b50565b600081359050610ad181610aab565b92915050565b6000819050919050565b610aea81610ad7565b8114610af557600080fd5b50565b600081359050610b0781610ae1565b92915050565b60008060408385031215610b2457610b23610a6f565b5b6000610b3285828601610ac2565b9250506020610b4385828601610af8565b9150509250929050565b6000819050919050565b610b6081610b4d565b82525050565b610b6f81610ad7565b82525050565b6000604082019050610b8a6000830185610b57565b610b976020830184610b66565b9392505050565b60008115159050919050565b610bb381610b9e565b82525050565b6000602082019050610bce6000830184610baa565b92915050565b6000610bdf82610a79565b9050919050565b610bef81610bd4565b82525050565b6000602082019050610c0a6000830184610be6565b92915050565b6000602082019050610c256000830184610b66565b92915050565b600080fd5b600080fd5b600080fd5b60008083601f840112610c5057610c4f610c2b565b5b8235905067ffffffffffffffff811115610c6d57610c6c610c30565b5b602083019150836020820283011115610c8957610c88610c35565b5b9250929050565b60008083601f840112610ca657610ca5610c2b565b5b8235905067ffffffffffffffff811115610cc357610cc2610c30565b5b602083019150836020820283011115610cdf57610cde610c35565b5b9250929050565b60008083601f840112610cfc57610cfb610c2b565b5b8235905067ffffffffffffffff811115610d1957610d18610c30565b5b602083019150836020820283011115610d3557610d34610c35565b5b9250929050565b60008060008060008060608789031215610d5957610d58610a6f565b5b600087013567ffffffffffffffff811115610d7757610d76610a74565b5b610d8389828a01610c3a565b9650965050602087013567ffffffffffffffff811115610da657610da5610a74565b5b610db289828a01610c90565b9450945050604087013567ffffffffffffffff811115610dd557610dd4610a74565b5b610de189828a01610ce6565b92509250509295509295509295565b610df981610a99565b82525050565b6000602082019050610e146000830184610df0565b92915050565b610e2381610b4d565b8114610e2e57600080fd5b50565b600081359050610e4081610e1a565b92915050565b600060208284031215610e5c57610e5b610a6f565b5b6000610e6a84828501610e31565b91505092915050565b7f4e487b7100000000000000000000000000000000000000000000000000000000600052601160045260246000fd5b6000610ead82610ad7565b9150610eb883610ad7565b9250828203905081811115610ed057610ecf610e73565b5b92915050565b6000604082019050610eeb6000830185610df0565b610ef86020830184610b66565b9392505050565b7f4e487b7100000000000000000000000000000000000000000000000000000000600052603260045260246000fd5b610f3781610b9e565b8114610f4257600080fd5b50565b600081359050610f5481610f2e565b92915050565b600060208284031215610f7057610f6f610a6f565b5b6000610f7e84828501610f45565b91505092915050565b6000819050919050565b610fa2610f9d82610ad7565b610f87565b82525050565b60008160f81b9050919050565b6000610fc082610fa8565b9050919050565b6000610fd282610fb5565b9050919050565b610fea610fe582610b9e565b610fc7565b82525050565b6000819050919050565b61100b61100682610b4d565b610ff0565b82525050565b600061101d8286610f91565b60208201915061102d8285610fd9565b60018201915061103d8284610ffa565b602082019150819050949350505050565b600061105982610ad7565b915061106483610ad7565b925082820190508082111561107c5761107b610e73565b5b92915050565b600061108d82610ad7565b91507fffffffffffffffffffffffffffffffffffffffffffffffffffffffffffffffff82036110bf576110be610e73565b5b60018201905091905056fea2646970667358221220471e2c27a40a2b157a3b45f92ec63099daadb1a4f17e049652aae2917813552764736f6c63430008130033",
  "immutableReferences": {},
  "source": "// SPDX-License-Identifier: GPL-3.0\r\npragma solidity >=0.7.0 <0.9.0;\r\ncontract BlindAuction {\r\n    struct Bid {\r\n        bytes32 blindedBid;\r\n        uint deposit;\r\n    }\r\n\r\n    address payable public beneficiary;\r\n    uint public biddingEnd;\r\n    uint public revealEnd;\r\n    bool public ended;\r\n\r\n    mapping(address => Bid[]) public bids;\r\n\r\n    address public highestBidder;\r\n    uint public highestBid;\r\n\r\n    mapping(address => uint) pendingReturns;\r\n\r\n    event AuctionEnded(address winner, uint highestBid);\r\n\r\n    error TooEarly(uint time);\r\n    error TooLate(uint time);\r\n    error AuctionEndAlreadyCalled();\r\n\r\n    modifier onlyBefore(uint time) {\r\n        if (block.timestamp >= time) revert TooLate(time - block.timestamp);\r\n        _;\r\n    }\r\n    modifier onlyAfter(uint time) {\r\n        if (block.timestamp <= time) revert TooEarly(time - block.timestamp);\r\n        _;\r\n    }\r\n\r\n    constructor(\r\n        uint biddingTime,\r\n        uint revealTime,\r\n        address payable beneficiaryAddress\r\n    ) {\r\n        beneficiary = beneficiaryAddress;\r\n        biddingEnd = block.timestamp + biddingTime;\r\n        revealEnd = biddingEnd + revealTime;\r\n    }\r\n\r\n    // function blind_a_bid(uint value, bool fake, bytes32 secret) \r\n    //     public \r\n    //     pure \r\n    //     returns (bytes32){\r\n    //     return keccak256(abi.encodePacked(value, fake, secret));\r\n    // }\r\n\r\n    function bid(bytes32 blindedBid)\r\n        external\r\n        payable\r\n        onlyBefore(biddingEnd)\r\n    {\r\n        bids[msg.sender].push(Bid({\r\n            blindedBid: blindedBid,\r\n            deposit: msg.value\r\n        }));\r\n    }\r\n\r\n    function reveal(\r\n        uint[] calldata values,\r\n        bool[] calldata fakes,\r\n        bytes32[] calldata secrets\r\n    )\r\n        external\r\n        onlyAfter(biddingEnd)\r\n        onlyBefore(revealEnd)\r\n    {\r\n        uint length = bids[msg.sender].length;\r\n        require(values.length == length);\r\n        require(fakes.length == length);\r\n        require(secrets.length == length);\r\n\r\n        uint refund;\r\n        for (uint i = 0; i < length; i++) {\r\n            Bid storage bidToCheck = bids[msg.sender][i];\r\n            (uint value, bool fake, bytes32 secret) =\r\n                    (values[i], fakes[i], secrets[i]);\r\n            if (bidToCheck.blindedBid != keccak256(abi.encodePacked(value, fake, secret))) {\r\n                continue;\r\n            }\r\n            refund += bidToCheck.deposit;\r\n            if (!fake && bidToCheck.deposit >= value) {\r\n                if (placeBid(msg.sender, value))\r\n                    refund -= value;\r\n            }\r\n            bidToCheck.blindedBid = bytes32(0);\r\n        }\r\n        payable(msg.sender).transfer(refund);\r\n    }\r\n\r\n    function withdraw() external {\r\n        uint amount = pendingReturns[msg.sender];\r\n        if (amount > 0) {\r\n            pendingReturns[msg.sender] = 0;\r\n            payable(msg.sender).transfer(amount);\r\n        }\r\n    }\r\n\r\n    function auctionEnd()\r\n        external\r\n        onlyAfter(revealEnd)\r\n    {\r\n        if (ended) revert AuctionEndAlreadyCalled();\r\n        emit AuctionEnded(highestBidder, highestBid);\r\n        ended = true;\r\n        beneficiary.transfer(highestBid);\r\n    }\r\n\r\n    function placeBid(address bidder, uint value) internal\r\n            returns (bool success)\r\n    {\r\n        if (value <= highestBid) {\r\n            return false;\r\n        }\r\n        if (highestBidder != address(0)) {\r\n            pendingReturns[highestBidder] += highestBid;\r\n        }\r\n        highestBid = value;\r\n        highestBidder = bidder;\r\n        return true;\r\n    }\r\n}",
  "sourcePath": "E:\\study-sprint\\MetaCoin\\contracts\\BlindAuction.sol",
  "compiler": {
    "name": "solc",
    "version": "0.8.19+commit.7dd6d404.Emscripten.clang"
  },
  "schemaVersion": "3.4.16",
  "updatedAt": "2024-01-27T15:04:04.245Z",
  "networkType": "ethereum",
  "devdoc": {
    "kind": "dev",
    "methods": {},
    "version": 1
  },
  "userdoc": {
    "kind": "user",
    "methods": {},
    "version": 1
  }
}