{
  "contractName": "SimpleAuction",
  "abi": [
    {
      "inputs": [
        {
          "internalType": "uint256",
          "name": "biddingtime",
          "type": "uint256"
        },
        {
          "internalType": "address payable",
          "name": "beneficiaryAddress",
          "type": "address"
        }
      ],
      "stateMutability": "nonpayable",
      "type": "constructor"
    },
    {
      "inputs": [],
      "name": "AuctionAlreadyEnded",
      "type": "error"
    },
    {
      "inputs": [],
      "name": "AuctionEndAlready",
      "type": "error"
    },
    {
      "inputs": [
        {
          "internalType": "uint256",
          "name": "amount",
          "type": "uint256"
        }
      ],
      "name": "BidNotHighEnough",
      "type": "error"
    },
    {
      "inputs": [],
      "name": "NotYetAlreadyEnd",
      "type": "error"
    },
    {
      "anonymous": false,
      "inputs": [
        {
          "indexed": false,
          "internalType": "address",
          "name": "winner",
          "type": "address"
        },
        {
          "indexed": false,
          "internalType": "uint256",
          "name": "amount",
          "type": "uint256"
        }
      ],
      "name": "AuctionEnded",
      "type": "event"
    },
    {
      "anonymous": false,
      "inputs": [
        {
          "indexed": false,
          "internalType": "address",
          "name": "bidder",
          "type": "address"
        },
        {
          "indexed": false,
          "internalType": "uint256",
          "name": "amount",
          "type": "uint256"
        }
      ],
      "name": "highestBidIncreased",
      "type": "event"
    },
    {
      "inputs": [],
      "name": "autionEndTime",
      "outputs": [
        {
          "internalType": "uint256",
          "name": "",
          "type": "uint256"
        }
      ],
      "stateMutability": "view",
      "type": "function",
      "constant": true
    },
    {
      "inputs": [],
      "name": "beneficiary",
      "outputs": [
        {
          "internalType": "address payable",
          "name": "",
          "type": "address"
        }
      ],
      "stateMutability": "view",
      "type": "function",
      "constant": true
    },
    {
      "inputs": [],
      "name": "highestBid",
      "outputs": [
        {
          "internalType": "uint256",
          "name": "",
          "type": "uint256"
        }
      ],
      "stateMutability": "view",
      "type": "function",
      "constant": true
    },
    {
      "inputs": [],
      "name": "highestBidder",
      "outputs": [
        {
          "internalType": "address",
          "name": "",
          "type": "address"
        }
      ],
      "stateMutability": "view",
      "type": "function",
      "constant": true
    },
    {
      "inputs": [],
      "name": "Bid",
      "outputs": [],
      "stateMutability": "payable",
      "type": "function",
      "payable": true
    },
    {
      "inputs": [],
      "name": "Withdraw",
      "outputs": [
        {
          "internalType": "bool",
          "name": "",
          "type": "bool"
        }
      ],
      "stateMutability": "nonpayable",
      "type": "function"
    },
    {
      "inputs": [],
      "name": "AuctionEnd",
      "outputs": [],
      "stateMutability": "nonpayable",
      "type": "function"
    }
  ],
  "bytecode": "0x608060405234801561001057600080fd5b50604051620009e4380380620009e483398181016040528101906100349190610126565b81426100409190610195565b600181905550806000806101000a81548173ffffffffffffffffffffffffffffffffffffffff021916908373ffffffffffffffffffffffffffffffffffffffff16021790555050506101eb565b600080fd5b6000819050919050565b6100a581610092565b81146100b057600080fd5b50565b6000815190506100c28161009c565b92915050565b600073ffffffffffffffffffffffffffffffffffffffff82169050919050565b60006100f3826100c8565b9050919050565b610103816100e8565b811461010e57600080fd5b50565b600081519050610120816100fa565b92915050565b6000806040838503121561013d5761013c61008d565b5b600061014b858286016100b3565b925050602061015c85828601610111565b9150509250929050565b7f4e487b7100000000000000000000000000000000000000000000000000000000600052601160045260246000fd5b60006101a082610092565b91506101ab83610092565b9250827fffffffffffffffffffffffffffffffffffffffffffffffffffffffffffffffff038211156101e0576101df610166565b5b828201905092915050565b6107e980620001fb6000396000f3fe6080604052600436106100705760003560e01c806357ea89b61161004e57806357ea89b6146100e25780636e6452cb1461010d57806391f9015714610117578063d57bde791461014257610070565b806326f50eb21461007557806332ffdf80146100a057806338af3eed146100b7575b600080fd5b34801561008157600080fd5b5061008a61016d565b604051610097919061061c565b60405180910390f35b3480156100ac57600080fd5b506100b5610173565b005b3480156100c357600080fd5b506100cc6102d9565b6040516100d99190610678565b60405180910390f35b3480156100ee57600080fd5b506100f76102fd565b60405161010491906106ae565b60405180910390f35b610115610426565b005b34801561012357600080fd5b5061012c6105d7565b60405161013991906106ea565b60405180910390f35b34801561014e57600080fd5b506101576105fd565b604051610164919061061c565b60405180910390f35b60015481565b6001544210156101af576040517f4ce0068000000000000000000000000000000000000000000000000000000000815260040160405180910390fd5b600560009054906101000a900460ff16156101f6576040517f0aae06c400000000000000000000000000000000000000000000000000000000815260040160405180910390fd5b6001600560006101000a81548160ff0219169083151502179055507fdaec4582d5d9595688c8c98545fdd1c696d41c6aeaeb636737e84ed2f5c00eda600260009054906101000a900473ffffffffffffffffffffffffffffffffffffffff16600354604051610266929190610705565b60405180910390a160008054906101000a900473ffffffffffffffffffffffffffffffffffffffff1673ffffffffffffffffffffffffffffffffffffffff166108fc6003549081150290604051600060405180830381858888f193505050501580156102d6573d6000803e3d6000fd5b50565b60008054906101000a900473ffffffffffffffffffffffffffffffffffffffff1681565b600080600460003373ffffffffffffffffffffffffffffffffffffffff1673ffffffffffffffffffffffffffffffffffffffff1681526020019081526020016000205490506000811115610421576000600460003373ffffffffffffffffffffffffffffffffffffffff1673ffffffffffffffffffffffffffffffffffffffff168152602001908152602001600020819055503373ffffffffffffffffffffffffffffffffffffffff166108fc829081150290604051600060405180830381858888f193505050506104175780600460003373ffffffffffffffffffffffffffffffffffffffff1673ffffffffffffffffffffffffffffffffffffffff168152602001908152602001600020819055506000915050610423565b6001915050610423565b505b90565b600154421115610462576040517fd02e774d00000000000000000000000000000000000000000000000000000000815260040160405180910390fd5b6003543410156104ab576003546040517f4e12c1bb0000000000000000000000000000000000000000000000000000000081526004016104a2919061061c565b60405180910390fd5b6000600354146105305760035460046000600260009054906101000a900473ffffffffffffffffffffffffffffffffffffffff1673ffffffffffffffffffffffffffffffffffffffff1673ffffffffffffffffffffffffffffffffffffffff1681526020019081526020016000206000828254610528919061075d565b925050819055505b33600260006101000a81548173ffffffffffffffffffffffffffffffffffffffff021916908373ffffffffffffffffffffffffffffffffffffffff160217905550346003819055507fd8f1dcefca138e7252b01cd1477fab84d8763d9b0c50b16805e3190c1c393a34600260009054906101000a900473ffffffffffffffffffffffffffffffffffffffff166003546040516105cd929190610705565b60405180910390a1565b600260009054906101000a900473ffffffffffffffffffffffffffffffffffffffff1681565b60035481565b6000819050919050565b61061681610603565b82525050565b6000602082019050610631600083018461060d565b92915050565b600073ffffffffffffffffffffffffffffffffffffffff82169050919050565b600061066282610637565b9050919050565b61067281610657565b82525050565b600060208201905061068d6000830184610669565b92915050565b60008115159050919050565b6106a881610693565b82525050565b60006020820190506106c3600083018461069f565b92915050565b60006106d482610637565b9050919050565b6106e4816106c9565b82525050565b60006020820190506106ff60008301846106db565b92915050565b600060408201905061071a60008301856106db565b610727602083018461060d565b9392505050565b7f4e487b7100000000000000000000000000000000000000000000000000000000600052601160045260246000fd5b600061076882610603565b915061077383610603565b9250827fffffffffffffffffffffffffffffffffffffffffffffffffffffffffffffffff038211156107a8576107a761072e565b5b82820190509291505056fea26469706673582212204d20612916d42ffc165d7cd35d5e3cad4a8b177473ed45296b5e3ddc8e0ca16164736f6c634300080d0033",
  "immutableReferences": {},
  "source": "// SPDX-License-Identifier: GPL-3.0\r\npragma solidity ^0.8.4;\r\n\r\ncontract SimpleAuction {\r\n    address payable public beneficiary;\r\n    uint public autionEndTime;\r\n    address public highestBidder;\r\n    uint public highestBid;\r\n    \r\n\r\n    mapping(address => uint) pendingReturns;\r\n\r\n    bool ended;\r\n\r\n    event highestBidIncreased(address bidder, uint amount);\r\n\r\n    event AuctionEnded(address winner, uint amount);\r\n\r\n    error AuctionAlreadyEnded();\r\n    error BidNotHighEnough(uint amount);\r\n    error NotYetAlreadyEnd();\r\n    error AuctionEndAlready();\r\n\r\n    constructor (uint biddingtime, address payable beneficiaryAddress) {\r\n        autionEndTime = block.timestamp + biddingtime;\r\n        beneficiary = beneficiaryAddress;\r\n    }\r\n\r\n    function Bid() external payable {\r\n        if(block.timestamp > autionEndTime) {\r\n            revert AuctionAlreadyEnded();\r\n        }\r\n        if(msg.value < highestBid) {\r\n            revert BidNotHighEnough(highestBid);\r\n        }\r\n        if(highestBid != 0) {\r\n            pendingReturns[highestBidder] += highestBid;\r\n        }\r\n        highestBidder = msg.sender;\r\n        highestBid = msg.value;\r\n        emit highestBidIncreased(highestBidder, highestBid);\r\n\r\n    }\r\n\r\n    function Withdraw() external returns (bool) {\r\n        uint amount = pendingReturns[msg.sender];\r\n        if(amount > 0) {\r\n            pendingReturns[msg.sender] = 0;\r\n\r\n            if(!payable(msg.sender).send(amount)) {\r\n                pendingReturns[msg.sender] = amount;\r\n                return false;\r\n            }\r\n            return true;\r\n        }\r\n    }\r\n\r\n    function AuctionEnd() external {\r\n        if(block.timestamp < autionEndTime) {\r\n            revert NotYetAlreadyEnd();\r\n        }\r\n        if(ended) {\r\n            revert AuctionEndAlready();\r\n        }\r\n        ended = true;\r\n        emit AuctionEnded(highestBidder, highestBid);\r\n\r\n        beneficiary.transfer(highestBid);\r\n    }\r\n\r\n}",
  "sourcePath": "E:\\study-sprint\\MetaCoin\\contracts\\SimpleAuction.sol",
  "compiler": {
    "name": "solc",
    "version": "0.8.13+commit.abaa5c0e.Emscripten.clang"
  },
  "schemaVersion": "3.4.16",
  "updatedAt": "2024-01-26T07:40:29.845Z",
  "networkType": "ethereum",
  "devdoc": {
    "kind": "dev",
    "methods": {},
    "version": 1
  },
  "userdoc": {
    "kind": "user",
    "methods": {},
    "version": 1
  }
}