{
  "contractName": "SimpleAuction",
  "abi": [
    {
      "inputs": [
        {
          "internalType": "uint256",
          "name": "biddingtime",
          "type": "uint256"
        },
        {
          "internalType": "address payable",
          "name": "beneficiaryAddress",
          "type": "address"
        }
      ],
      "stateMutability": "nonpayable",
      "type": "constructor"
    },
    {
      "inputs": [],
      "name": "AuctionAlreadyEnded",
      "type": "error"
    },
    {
      "inputs": [],
      "name": "AuctionEndAlready",
      "type": "error"
    },
    {
      "inputs": [
        {
          "internalType": "uint256",
          "name": "amount",
          "type": "uint256"
        }
      ],
      "name": "BidNotHighEnough",
      "type": "error"
    },
    {
      "inputs": [],
      "name": "NotYetAlreadyEnd",
      "type": "error"
    },
    {
      "anonymous": false,
      "inputs": [
        {
          "indexed": false,
          "internalType": "address",
          "name": "winner",
          "type": "address"
        },
        {
          "indexed": false,
          "internalType": "uint256",
          "name": "amount",
          "type": "uint256"
        }
      ],
      "name": "AuctionEnded",
      "type": "event"
    },
    {
      "anonymous": false,
      "inputs": [
        {
          "indexed": false,
          "internalType": "address",
          "name": "bidder",
          "type": "address"
        },
        {
          "indexed": false,
          "internalType": "uint256",
          "name": "amount",
          "type": "uint256"
        }
      ],
      "name": "highestBidIncreased",
      "type": "event"
    },
    {
      "inputs": [],
      "name": "autionEndTime",
      "outputs": [
        {
          "internalType": "uint256",
          "name": "",
          "type": "uint256"
        }
      ],
      "stateMutability": "view",
      "type": "function",
      "constant": true
    },
    {
      "inputs": [],
      "name": "beneficiary",
      "outputs": [
        {
          "internalType": "address payable",
          "name": "",
          "type": "address"
        }
      ],
      "stateMutability": "view",
      "type": "function",
      "constant": true
    },
    {
      "inputs": [],
      "name": "highestBid",
      "outputs": [
        {
          "internalType": "uint256",
          "name": "",
          "type": "uint256"
        }
      ],
      "stateMutability": "view",
      "type": "function",
      "constant": true
    },
    {
      "inputs": [],
      "name": "highestBidder",
      "outputs": [
        {
          "internalType": "address",
          "name": "",
          "type": "address"
        }
      ],
      "stateMutability": "view",
      "type": "function",
      "constant": true
    },
    {
      "inputs": [],
      "name": "bid",
      "outputs": [],
      "stateMutability": "payable",
      "type": "function",
      "payable": true
    },
    {
      "inputs": [],
      "name": "withdraw",
      "outputs": [
        {
          "internalType": "bool",
          "name": "",
          "type": "bool"
        }
      ],
      "stateMutability": "nonpayable",
      "type": "function"
    },
    {
      "inputs": [],
      "name": "auctionEnd",
      "outputs": [],
      "stateMutability": "nonpayable",
      "type": "function"
    }
  ],
  "bytecode": "0x608060405234801561001057600080fd5b506040516200099b3803806200099b83398181016040528101906100349190610126565b81426100409190610195565b600181905550806000806101000a81548173ffffffffffffffffffffffffffffffffffffffff021916908373ffffffffffffffffffffffffffffffffffffffff16021790555050506101c9565b600080fd5b6000819050919050565b6100a581610092565b81146100b057600080fd5b50565b6000815190506100c28161009c565b92915050565b600073ffffffffffffffffffffffffffffffffffffffff82169050919050565b60006100f3826100c8565b9050919050565b610103816100e8565b811461010e57600080fd5b50565b600081519050610120816100fa565b92915050565b6000806040838503121561013d5761013c61008d565b5b600061014b858286016100b3565b925050602061015c85828601610111565b9150509250929050565b7f4e487b7100000000000000000000000000000000000000000000000000000000600052601160045260246000fd5b60006101a082610092565b91506101ab83610092565b92508282019050808211156101c3576101c2610166565b5b92915050565b6107c280620001d96000396000f3fe6080604052600436106100705760003560e01c806338af3eed1161004e57806338af3eed146100c15780633ccfd60b146100ec57806391f9015714610117578063d57bde791461014257610070565b80631998aeef1461007557806326f50eb21461007f5780632a24f46c146100aa575b600080fd5b61007d61016d565b005b34801561008b57600080fd5b5061009461031e565b6040516100a19190610617565b60405180910390f35b3480156100b657600080fd5b506100bf610324565b005b3480156100cd57600080fd5b506100d661048a565b6040516100e39190610673565b60405180910390f35b3480156100f857600080fd5b506101016104ae565b60405161010e91906106a9565b60405180910390f35b34801561012357600080fd5b5061012c6105d2565b60405161013991906106e5565b60405180910390f35b34801561014e57600080fd5b506101576105f8565b6040516101649190610617565b60405180910390f35b6001544211156101a9576040517fd02e774d00000000000000000000000000000000000000000000000000000000815260040160405180910390fd5b6003543410156101f2576003546040517f4e12c1bb0000000000000000000000000000000000000000000000000000000081526004016101e99190610617565b60405180910390fd5b6000600354146102775760035460046000600260009054906101000a900473ffffffffffffffffffffffffffffffffffffffff1673ffffffffffffffffffffffffffffffffffffffff1673ffffffffffffffffffffffffffffffffffffffff168152602001908152602001600020600082825461026f919061072f565b925050819055505b33600260006101000a81548173ffffffffffffffffffffffffffffffffffffffff021916908373ffffffffffffffffffffffffffffffffffffffff160217905550346003819055507fd8f1dcefca138e7252b01cd1477fab84d8763d9b0c50b16805e3190c1c393a34600260009054906101000a900473ffffffffffffffffffffffffffffffffffffffff16600354604051610314929190610763565b60405180910390a1565b60015481565b600154421015610360576040517f4ce0068000000000000000000000000000000000000000000000000000000000815260040160405180910390fd5b600560009054906101000a900460ff16156103a7576040517f0aae06c400000000000000000000000000000000000000000000000000000000815260040160405180910390fd5b6001600560006101000a81548160ff0219169083151502179055507fdaec4582d5d9595688c8c98545fdd1c696d41c6aeaeb636737e84ed2f5c00eda600260009054906101000a900473ffffffffffffffffffffffffffffffffffffffff16600354604051610417929190610763565b60405180910390a160008054906101000a900473ffffffffffffffffffffffffffffffffffffffff1673ffffffffffffffffffffffffffffffffffffffff166108fc6003549081150290604051600060405180830381858888f19350505050158015610487573d6000803e3d6000fd5b50565b60008054906101000a900473ffffffffffffffffffffffffffffffffffffffff1681565b600080600460003373ffffffffffffffffffffffffffffffffffffffff1673ffffffffffffffffffffffffffffffffffffffff16815260200190815260200160002054905060008111156105c9576000600460003373ffffffffffffffffffffffffffffffffffffffff1673ffffffffffffffffffffffffffffffffffffffff168152602001908152602001600020819055503373ffffffffffffffffffffffffffffffffffffffff166108fc829081150290604051600060405180830381858888f193505050506105c85780600460003373ffffffffffffffffffffffffffffffffffffffff1673ffffffffffffffffffffffffffffffffffffffff1681526020019081526020016000208190555060009150506105cf565b5b60019150505b90565b600260009054906101000a900473ffffffffffffffffffffffffffffffffffffffff1681565b60035481565b6000819050919050565b610611816105fe565b82525050565b600060208201905061062c6000830184610608565b92915050565b600073ffffffffffffffffffffffffffffffffffffffff82169050919050565b600061065d82610632565b9050919050565b61066d81610652565b82525050565b60006020820190506106886000830184610664565b92915050565b60008115159050919050565b6106a38161068e565b82525050565b60006020820190506106be600083018461069a565b92915050565b60006106cf82610632565b9050919050565b6106df816106c4565b82525050565b60006020820190506106fa60008301846106d6565b92915050565b7f4e487b7100000000000000000000000000000000000000000000000000000000600052601160045260246000fd5b600061073a826105fe565b9150610745836105fe565b925082820190508082111561075d5761075c610700565b5b92915050565b600060408201905061077860008301856106d6565b6107856020830184610608565b939250505056fea26469706673582212202c4a7481ee0fbce6b14e9b9607f71460d82f6c4a6e012fb2e7f57b24b19d46da64736f6c63430008130033",
  "immutableReferences": {},
  "source": "// SPDX-License-Identifier: GPL-3.0\r\npragma solidity >=0.7.0 <0.9.0;\r\n\r\ncontract SimpleAuction {\r\n    address payable public beneficiary;\r\n    uint public autionEndTime;\r\n    address public highestBidder;\r\n    uint public highestBid;\r\n    \r\n\r\n    mapping(address => uint) pendingReturns;\r\n\r\n    bool ended;\r\n\r\n    event highestBidIncreased(address bidder, uint amount);\r\n\r\n    event AuctionEnded(address winner, uint amount);\r\n\r\n    error AuctionAlreadyEnded();\r\n    error BidNotHighEnough(uint amount);\r\n    error NotYetAlreadyEnd();\r\n    error AuctionEndAlready();\r\n\r\n    constructor (uint biddingtime, address payable beneficiaryAddress) {\r\n        autionEndTime = block.timestamp + biddingtime;\r\n        beneficiary = beneficiaryAddress;\r\n    }\r\n\r\n    function bid() external payable {\r\n        if(block.timestamp > autionEndTime) {\r\n            revert AuctionAlreadyEnded();\r\n        }\r\n        if(msg.value < highestBid) {\r\n            revert BidNotHighEnough(highestBid);\r\n        }\r\n        if(highestBid != 0) {\r\n            pendingReturns[highestBidder] += highestBid;\r\n        }\r\n        highestBidder = msg.sender;\r\n        highestBid = msg.value;\r\n        emit highestBidIncreased(highestBidder, highestBid);\r\n\r\n    }\r\n\r\n    function withdraw() external returns (bool) {\r\n        uint amount = pendingReturns[msg.sender];\r\n        if(amount > 0) {\r\n            pendingReturns[msg.sender] = 0;\r\n\r\n            if(!payable(msg.sender).send(amount)) {\r\n                pendingReturns[msg.sender] = amount;\r\n                return false;\r\n            }\r\n            \r\n        }\r\n        return true;\r\n    }\r\n\r\n    function auctionEnd() external {\r\n        if(block.timestamp < autionEndTime) {\r\n            revert NotYetAlreadyEnd();\r\n        }\r\n        if(ended) {\r\n            revert AuctionEndAlready();\r\n        }\r\n        ended = true;\r\n        emit AuctionEnded(highestBidder, highestBid);\r\n\r\n        beneficiary.transfer(highestBid);\r\n    }\r\n\r\n}",
  "sourcePath": "E:\\study-sprint\\MetaCoin\\contracts\\SimpleAuction.sol",
  "compiler": {
    "name": "solc",
    "version": "0.8.19+commit.7dd6d404.Emscripten.clang"
  },
  "schemaVersion": "3.4.16",
  "updatedAt": "2024-01-31T02:16:16.904Z",
  "networkType": "ethereum",
  "devdoc": {
    "kind": "dev",
    "methods": {},
    "version": 1
  },
  "userdoc": {
    "kind": "user",
    "methods": {},
    "version": 1
  }
}